8=FIX.4.4|9=85|35=A|34=1|49=INVINITIVE_UAT|52=20230401-00:00:59.883|56=INCAEU_UAT|98=0|108=30|141=Y|10=121|8=FIX.4.4|9=124|35=D|34=2|49=INVINITIVE_UAT|52=20230401-00:01:06.074|56=INCAEU_UAT|11=123|38=100|40=1|54=1|55=AAPL|60=20230401-00:01:04.543|10=243|8=FIX.4.4|9=67|35=5|34=3|49=INVINITIVE_UAT|52=20230401-00:01:10.695|56=INCAEU_UAT|10=030|8=FIX.4.4|9=124|35=D|34=4|49=INVINITIVE_UAT|52=20230401-00:01:19.363|56=INCAEU_UAT|11=123|38=100|40=1|54=1|55=AAPL|60=20230401-00:01:18.543|10=255|8=FIX.4.4|9=124|35=D|34=5|49=INVINITIVE_UAT|52=20230401-00:01:43.216|56=INCAEU_UAT|11=123|38=100|40=1|54=1|55=AAPL|60=20230401-00:01:40.700|10=240|