8=FIX.4.2|9=80|35=A|34=1|49=INVINITIVE|52=20230412-11:52:24.870|56=INFRONT_T|98=0|108=30|141=Y|10=253|8=FIX.4.2|9=193|35=D|34=2|49=INVINITIVE|52=20230412-11:52:27.281|56=INFRONT_T|11=19a8e205-87a0-4d67-bf1d-51ed69ac4761|15=GBP|21=1|22=4|38=100|40=1|48=GB00BH4HKS39|54=1|55=VOD|60=20230412-11:52:27.266|207=XLON|10=255|8=FIX.4.2|9=193|35=D|34=3|49=INVINITIVE|52=20230412-11:53:28.543|56=INFRONT_T|11=a01e6aaf-8387-4aa7-9cbc-5f679716924e|15=GBP|21=1|22=4|38=100|40=1|48=GB00BH4HKS39|54=1|55=VOD|60=20230412-11:53:28.534|207=XLON|10=062|8=FIX.4.2|9=74|35=A|34=4|49=INVINITIVE|52=20230412-11:53:32.460|56=INFRONT_T|98=0|108=30|10=209|8=FIX.4.2|9=193|35=D|34=5|49=INVINITIVE|52=20230412-11:53:34.111|56=INFRONT_T|11=a01e6aaf-8387-4aa7-9cbc-5f679716924e|15=GBP|21=1|22=4|38=100|40=1|48=GB00BH4HKS39|54=1|55=VOD|60=20230412-11:53:34.111|207=XLON|10=040|8=FIX.4.2|9=71|35=2|34=6|49=INVINITIVE|52=20230412-11:53:34.764|56=INFRONT_T|7=1|16=0|10=044|8=FIX.4.2|9=193|35=D|34=7|49=INVINITIVE|52=20230412-11:54:47.714|56=INFRONT_T|11=eec3023f-93a1-473a-a7a5-a5b64d2bb1a9|15=GBP|21=1|22=4|38=100|40=1|48=GB00BH4HKS39|54=1|55=VOD|60=20230412-11:54:47.713|207=XLON|10=130|8=FIX.4.2|9=71|35=1|34=8|49=INVINITIVE|52=20230412-11:54:49.110|56=INFRONT_T|112=TEST|10=188|8=FIX.4.2|9=74|35=A|34=9|49=INVINITIVE|52=20230412-11:55:02.866|56=INFRONT_T|98=0|108=30|10=223|8=FIX.4.2|9=72|35=2|34=10|49=INVINITIVE|52=20230412-11:55:40.684|56=INFRONT_T|7=1|16=0|10=088|8=FIX.4.2|9=194|35=D|34=11|49=INVINITIVE|52=20230412-11:55:46.779|56=INFRONT_T|11=000cb5e5-0773-4de4-8d34-f2c05636122d|15=GBP|21=1|22=4|38=100|40=1|48=GB00BH4HKS39|54=1|55=VOD|60=20230412-11:55:46.779|207=XLON|10=217|8=FIX.4.2|9=72|35=1|34=12|49=INVINITIVE|52=20230412-11:55:52.474|56=INFRONT_T|112=TEST|10=240|8=FIX.4.2|9=194|35=D|34=13|49=INVINITIVE|52=20230412-11:57:12.707|56=INFRONT_T|11=d2d63024-990e-43a2-ae3f-21d28c6d9299|15=GBP|21=1|22=4|38=100|40=1|48=GB00BH4HKS39|54=1|55=VOD|60=20230412-11:57:12.699|207=XLON|10=012|8=FIX.4.2|9=75|35=A|34=14|49=INVINITIVE|52=20230412-11:57:13.473|56=INFRONT_T|98=0|108=30|10=010|8=FIX.4.2|9=194|35=D|34=15|49=INVINITIVE|52=20230412-11:57:15.248|56=INFRONT_T|11=d2d63024-990e-43a2-ae3f-21d28c6d9299|15=GBP|21=1|22=4|38=100|40=1|48=GB00BH4HKS39|54=1|55=VOD|60=20230412-11:57:15.245|207=XLON|10=007|8=FIX.4.2|9=194|35=D|34=16|49=INVINITIVE|52=20230412-11:57:54.729|56=INFRONT_T|11=338a8fc1-2e87-4288-897c-950834d3684f|15=GBP|21=1|22=4|38=100|40=1|48=GB00BH4HKS39|54=1|55=VOD|60=20230412-11:57:54.729|207=XLON|10=169|8=FIX.4.2|9=72|35=2|34=17|49=INVINITIVE|52=20230412-11:58:17.645|56=INFRONT_T|7=1|16=0|10=099|8=FIX.4.2|9=194|35=D|34=18|49=INVINITIVE|52=20230412-11:58:24.957|56=INFRONT_T|11=c8de8641-ebc7-4d24-ab3b-0edaa0e8af50|15=GBP|21=1|22=4|38=100|40=1|48=GB00BH4HKS39|54=1|55=VOD|60=20230412-11:58:24.957|207=XLON|10=091|8=FIX.4.2|9=72|35=1|34=19|49=INVINITIVE|52=20230412-11:58:27.575|56=INFRONT_T|112=TEST|10=254|