8=FIX.4.2|9=94|35=A|34=1|49=INVINITIVE_UAT|52=20230405-13:56:00.492|56=INCAEU_UAT|57=SMART|98=0|108=30|141=Y|10=169|8=FIX.4.2|9=216|35=D|34=2|49=INVINITIVE_UAT|52=20230405-13:56:01.321|56=INCAEU_UAT|57=SMART|11=9d9d6935-1622-4151-8e8f-df3f6f55466c|15=GBP|21=1|22=4|38=100|40=1|48=GB00BH4HKS39|54=1|55=GB00BH4HKS39|60=20230405-13:56:00.910|207=XLON|10=095|8=FIX.4.2|9=88|35=A|34=3|49=INVINITIVE_UAT|52=20230405-13:56:33.663|56=INCAEU_UAT|57=SMART|98=0|108=30|10=135|8=FIX.4.2|9=216|35=D|34=4|49=INVINITIVE_UAT|52=20230405-13:56:34.593|56=INCAEU_UAT|57=SMART|11=ff01959d-b560-4727-a009-73f5ab76011a|15=GBP|21=1|22=4|38=100|40=1|48=GB00BH4HKS39|54=1|55=GB00BH4HKS39|60=20230405-13:56:34.111|207=XLON|10=079|8=FIX.4.2|9=85|35=2|34=5|49=INVINITIVE_UAT|52=20230405-13:56:35.568|56=INCAEU_UAT|57=SMART|7=1|16=0|10=223|8=FIX.4.2|9=216|35=D|34=6|49=INVINITIVE_UAT|52=20230405-13:56:40.275|56=INCAEU_UAT|57=SMART|11=53013f3f-7878-436a-85ed-4b6a86e6bbb5|15=GBP|21=1|22=4|38=100|40=1|48=GB00BH4HKS39|54=1|55=GB00BH4HKS39|60=20230405-13:56:40.116|207=XLON|10=192|8=FIX.4.2|9=76|35=5|34=7|49=INVINITIVE_UAT|52=20230405-13:56:40.418|56=INCAEU_UAT|57=SMART|10=095|8=FIX.4.2|9=88|35=A|34=8|49=INVINITIVE_UAT|52=20230405-13:56:44.270|56=INCAEU_UAT|57=SMART|98=0|108=30|10=136|8=FIX.4.2|9=216|35=D|34=9|49=INVINITIVE_UAT|52=20230405-13:56:45.968|56=INCAEU_UAT|57=SMART|11=81e78b63-614b-4956-9db2-2a7545627570|15=GBP|21=1|22=4|38=100|40=1|48=GB00BH4HKS39|54=1|55=GB00BH4HKS39|60=20230405-13:56:45.434|207=XLON|10=236|8=FIX.4.2|9=217|35=D|34=10|49=INVINITIVE_UAT|52=20230405-13:56:53.790|56=INCAEU_UAT|57=SMART|11=ee9556d5-68dc-4828-814b-c421258bdd4f|15=GBP|21=1|22=4|38=100|40=1|48=GB00BH4HKS39|54=1|55=GB00BH4HKS39|60=20230405-13:56:51.564|207=XLON|10=000|8=FIX.4.2|9=217|35=D|34=11|49=INVINITIVE_UAT|52=20230405-13:57:01.381|56=INCAEU_UAT|57=SMART|11=1f31dea7-8359-4184-9bc1-e76192086774|15=GBP|21=1|22=4|38=100|40=1|48=GB00BH4HKS39|54=1|55=GB00BH4HKS39|60=20230405-13:57:01.381|207=XLON|10=048|8=FIX.4.2|9=217|35=D|34=12|49=INVINITIVE_UAT|52=20230405-13:57:06.675|56=INCAEU_UAT|57=SMART|11=5c71f943-5c49-467d-8783-b1a0fcb33118|15=GBP|21=1|22=4|38=100|40=1|48=GB00BH4HKS39|54=1|55=GB00BH4HKS39|60=20230405-13:57:06.675|207=XLON|10=157|8=FIX.4.2|9=217|35=D|34=13|49=INVINITIVE_UAT|52=20230405-13:57:11.686|56=INCAEU_UAT|57=SMART|11=741d79ff-9d45-4d3c-942f-9e3d57168355|15=GBP|21=1|22=4|38=100|40=1|48=GB00BH4HKS39|54=1|55=GB00BH4HKS39|60=20230405-13:57:11.686|207=XLON|10=179|8=FIX.4.2|9=217|35=D|34=14|49=INVINITIVE_UAT|52=20230405-13:57:16.688|56=INCAEU_UAT|57=SMART|11=002ae95d-fa00-4083-be1d-372ccfec892a|15=GBP|21=1|22=4|38=100|40=1|48=GB00BH4HKS39|54=1|55=GB00BH4HKS39|60=20230405-13:57:16.688|207=XLON|10=128|8=FIX.4.2|9=217|35=D|34=15|49=INVINITIVE_UAT|52=20230405-13:57:21.696|56=INCAEU_UAT|57=SMART|11=75d5c8d9-fab1-4af3-89f2-7ecb6a8317c8|15=GBP|21=1|22=4|38=100|40=1|48=GB00BH4HKS39|54=1|55=GB00BH4HKS39|60=20230405-13:57:21.696|207=XLON|10=155|8=FIX.4.2|9=217|35=D|34=16|49=INVINITIVE_UAT|52=20230405-13:57:26.697|56=INCAEU_UAT|57=SMART|11=142f3470-6591-482a-bd5b-0fbb9960f19c|15=GBP|21=1|22=4|38=100|40=1|48=GB00BH4HKS39|54=1|55=GB00BH4HKS39|60=20230405-13:57:26.697|207=XLON|10=213|8=FIX.4.2|9=217|35=D|34=17|49=INVINITIVE_UAT|52=20230405-13:57:31.707|56=INCAEU_UAT|57=SMART|11=1fe959a8-4ec6-4de7-8c5f-c23df1937ec4|15=GBP|21=1|22=4|38=100|40=1|48=GB00BH4HKS39|54=1|55=GB00BH4HKS39|60=20230405-13:57:31.707|207=XLON|10=151|8=FIX.4.2|9=217|35=D|34=18|49=INVINITIVE_UAT|52=20230405-13:57:36.715|56=INCAEU_UAT|57=SMART|11=214a2c8a-fc05-44dd-ae16-0b855b9b6912|15=GBP|21=1|22=4|38=100|40=1|48=GB00BH4HKS39|54=1|55=GB00BH4HKS39|60=20230405-13:57:36.715|207=XLON|10=026|8=FIX.4.2|9=217|35=D|34=19|49=INVINITIVE_UAT|52=20230405-13:57:41.713|56=INCAEU_UAT|57=SMART|11=e971d21c-6339-44bc-bbe0-7c8528cad123|15=GBP|21=1|22=4|38=100|40=1|48=GB00BH4HKS39|54=1|55=GB00BH4HKS39|60=20230405-13:57:41.713|207=XLON|10=021|8=FIX.4.2|9=89|35=A|34=20|49=INVINITIVE_UAT|52=20230405-13:58:11.661|56=INCAEU_UAT|57=SMART|98=0|108=30|10=179|8=FIX.4.2|9=217|35=D|34=21|49=INVINITIVE_UAT|52=20230405-13:58:11.675|56=INCAEU_UAT|57=SMART|11=ded544ac-824a-4a18-9ddc-32032d3da262|15=GBP|21=1|22=4|38=100|40=1|48=GB00BH4HKS39|54=1|55=GB00BH4HKS39|60=20230405-13:58:11.670|207=XLON|10=056|8=FIX.4.2|9=87|35=2|34=22|49=INVINITIVE_UAT|52=20230405-13:58:11.847|56=INCAEU_UAT|57=SMART|7=68|16=0|10=073|8=FIX.4.2|9=217|35=D|34=23|49=INVINITIVE_UAT|52=20230405-13:58:21.680|56=INCAEU_UAT|57=SMART|11=50da3b1b-4083-4a03-a8d8-a45a2e771462|15=GBP|21=1|22=4|38=100|40=1|48=GB00BH4HKS39|54=1|55=GB00BH4HKS39|60=20230405-13:58:21.680|207=XLON|10=165|8=FIX.4.2|9=217|35=D|34=24|49=INVINITIVE_UAT|52=20230405-13:58:31.680|56=INCAEU_UAT|57=SMART|11=297e4503-58a5-4b9f-8bb4-fce32664b294|15=GBP|21=1|22=4|38=100|40=1|48=GB00BH4HKS39|54=1|55=GB00BH4HKS39|60=20230405-13:58:31.680|207=XLON|10=204|8=FIX.4.2|9=217|35=D|34=25|49=INVINITIVE_UAT|52=20230405-13:58:41.685|56=INCAEU_UAT|57=SMART|11=5ec9c3ad-3be9-4ceb-b1df-ce44403d1eab|15=GBP|21=1|22=4|38=100|40=1|48=GB00BH4HKS39|54=1|55=GB00BH4HKS39|60=20230405-13:58:41.685|207=XLON|10=109|8=FIX.4.2|9=217|35=D|34=26|49=INVINITIVE_UAT|52=20230405-13:58:51.693|56=INCAEU_UAT|57=SMART|11=b8c3f589-057f-4a61-98d6-616ff05bde66|15=GBP|21=1|22=4|38=100|40=1|48=GB00BH4HKS39|54=1|55=GB00BH4HKS39|60=20230405-13:58:51.693|207=XLON|10=021|8=FIX.4.2|9=217|35=D|34=27|49=INVINITIVE_UAT|52=20230405-13:59:01.694|56=INCAEU_UAT|57=SMART|11=75c58261-104f-4b97-87ae-8eae9c2ccd5a|15=GBP|21=1|22=4|38=100|40=1|48=GB00BH4HKS39|54=1|55=GB00BH4HKS39|60=20230405-13:59:01.694|207=XLON|10=098|8=FIX.4.2|9=89|35=A|34=28|49=INVINITIVE_UAT|52=20230405-14:02:16.529|56=INCAEU_UAT|57=SMART|98=0|108=30|10=185|8=FIX.4.2|9=217|35=D|34=29|49=INVINITIVE_UAT|52=20230405-14:02:16.545|56=INCAEU_UAT|57=SMART|11=d9f97fc3-b7e6-4073-b7a5-b3a2d2d2ad06|15=GBP|21=1|22=4|38=100|40=1|48=GB00BH4HKS39|54=1|55=GB00BH4HKS39|60=20230405-14:02:16.542|207=XLON|10=112|8=FIX.4.2|9=87|35=2|34=30|49=INVINITIVE_UAT|52=20230405-14:02:16.712|56=INCAEU_UAT|57=SMART|7=80|16=0|10=052|8=FIX.4.2|9=77|35=0|34=31|49=INVINITIVE_UAT|52=20230405-14:02:46.799|56=INCAEU_UAT|57=SMART|10=146|8=FIX.4.2|9=77|35=0|34=32|49=INVINITIVE_UAT|52=20230405-14:03:17.799|56=INCAEU_UAT|57=SMART|10=146|8=FIX.4.2|9=84|35=0|34=33|49=INVINITIVE_UAT|52=20230405-14:03:17.928|56=INCAEU_UAT|57=SMART|112=88|10=205|8=FIX.4.2|9=77|35=0|34=34|49=INVINITIVE_UAT|52=20230405-14:03:48.928|56=INCAEU_UAT|57=SMART|10=146|8=FIX.4.2|9=217|35=D|34=35|49=INVINITIVE_UAT|52=20230405-14:03:56.564|56=INCAEU_UAT|57=SMART|11=b7608f44-951b-43cf-8299-43afcf17a733|15=GBP|21=1|22=4|38=100|40=1|48=GB00BH4HKS39|54=1|55=GB00BH4HKS39|60=20230405-14:03:56.564|207=XLON|10=204|8=FIX.4.2|9=77|35=0|34=36|49=INVINITIVE_UAT|52=20230405-14:04:26.698|56=INCAEU_UAT|57=SMART|10=149|8=FIX.4.2|9=77|35=0|34=37|49=INVINITIVE_UAT|52=20230405-14:04:57.698|56=INCAEU_UAT|57=SMART|10=154|8=FIX.4.2|9=84|35=0|34=38|49=INVINITIVE_UAT|52=20230405-14:04:57.824|56=INCAEU_UAT|57=SMART|112=94|10=207|8=FIX.4.2|9=77|35=0|34=39|49=INVINITIVE_UAT|52=20230405-14:05:27.829|56=INCAEU_UAT|57=SMART|10=150|8=FIX.4.2|9=217|35=D|34=40|49=INVINITIVE_UAT|52=20230405-14:05:36.565|56=INCAEU_UAT|57=SMART|11=56bcc700-aa73-4f34-b47f-ad0d63042943|15=GBP|21=1|22=4|38=100|40=1|48=GB00BH4HKS39|54=1|55=GB00BH4HKS39|60=20230405-14:05:36.565|207=XLON|10=221|8=FIX.4.2|9=77|35=0|34=41|49=INVINITIVE_UAT|52=20230405-14:06:06.701|56=INCAEU_UAT|57=SMART|10=130|8=FIX.4.2|9=77|35=0|34=42|49=INVINITIVE_UAT|52=20230405-14:06:36.702|56=INCAEU_UAT|57=SMART|10=135|8=FIX.4.2|9=77|35=0|34=43|49=INVINITIVE_UAT|52=20230405-14:07:06.720|56=INCAEU_UAT|57=SMART|10=134|8=FIX.4.2|9=217|35=D|34=44|49=INVINITIVE_UAT|52=20230405-14:07:16.564|56=INCAEU_UAT|57=SMART|11=58e7ffda-aeb4-4e6e-b480-0140ce373f06|15=GBP|21=1|22=4|38=100|40=1|48=GB00BH4HKS39|54=1|55=GB00BH4HKS39|60=20230405-14:07:16.564|207=XLON|10=123|8=FIX.4.2|9=77|35=0|34=45|49=INVINITIVE_UAT|52=20230405-14:07:46.701|56=INCAEU_UAT|57=SMART|10=139|8=FIX.4.2|9=77|35=0|34=46|49=INVINITIVE_UAT|52=20230405-14:08:17.700|56=INCAEU_UAT|57=SMART|10=138|8=FIX.4.2|9=77|35=0|34=47|49=INVINITIVE_UAT|52=20230405-14:08:47.701|56=INCAEU_UAT|57=SMART|10=143|8=FIX.4.2|9=217|35=D|34=48|49=INVINITIVE_UAT|52=20230405-14:08:56.559|56=INCAEU_UAT|57=SMART|11=1e043b9f-d702-45fa-91cc-b2e15bc2d6f2|15=GBP|21=1|22=4|38=100|40=1|48=GB00BH4HKS39|54=1|55=GB00BH4HKS39|60=20230405-14:08:56.559|207=XLON|10=134|8=FIX.4.2|9=77|35=0|34=49|49=INVINITIVE_UAT|52=20230405-14:09:26.689|56=INCAEU_UAT|57=SMART|10=158|8=FIX.4.2|9=77|35=0|34=50|49=INVINITIVE_UAT|52=20230405-14:09:57.690|56=INCAEU_UAT|57=SMART|10=146|8=FIX.4.2|9=77|35=0|34=51|49=INVINITIVE_UAT|52=20230405-14:10:28.689|56=INCAEU_UAT|57=SMART|10=145|8=FIX.4.2|9=85|35=0|34=52|49=INVINITIVE_UAT|52=20230405-14:10:28.812|56=INCAEU_UAT|57=SMART|112=111|10=234|8=FIX.4.2|9=217|35=D|34=53|49=INVINITIVE_UAT|52=20230405-14:10:36.571|56=INCAEU_UAT|57=SMART|11=e4e11b73-2d45-42df-9d63-2e8dc6cca09e|15=GBP|21=1|22=4|38=100|40=1|48=GB00BH4HKS39|54=1|55=GB00BH4HKS39|60=20230405-14:10:36.571|207=XLON|10=115|8=FIX.4.2|9=77|35=0|34=54|49=INVINITIVE_UAT|52=20230405-14:11:06.706|56=INCAEU_UAT|57=SMART|10=135|8=FIX.4.2|9=77|35=0|34=55|49=INVINITIVE_UAT|52=20230405-14:11:37.706|56=INCAEU_UAT|57=SMART|10=140|8=FIX.4.2|9=85|35=0|34=56|49=INVINITIVE_UAT|52=20230405-14:11:37.831|56=INCAEU_UAT|57=SMART|112=116|10=245|8=FIX.4.2|9=77|35=0|34=57|49=INVINITIVE_UAT|52=20230405-14:12:07.832|56=INCAEU_UAT|57=SMART|10=140|8=FIX.4.2|9=217|35=D|34=58|49=INVINITIVE_UAT|52=20230405-14:12:16.575|56=INCAEU_UAT|57=SMART|11=2b9932cb-4070-4552-97d0-2ba5741b87e4|15=GBP|21=1|22=4|38=100|40=1|48=GB00BH4HKS39|54=1|55=GB00BH4HKS39|60=20230405-14:12:16.575|207=XLON|10=093|8=FIX.4.2|9=77|35=0|34=59|49=INVINITIVE_UAT|52=20230405-14:12:46.710|56=INCAEU_UAT|57=SMART|10=140|8=FIX.4.2|9=77|35=0|34=60|49=INVINITIVE_UAT|52=20230405-14:13:17.708|56=INCAEU_UAT|57=SMART|10=138|8=FIX.4.2|9=77|35=0|34=61|49=INVINITIVE_UAT|52=20230405-14:13:47.710|56=INCAEU_UAT|57=SMART|10=135|8=FIX.4.2|9=217|35=D|34=62|49=INVINITIVE_UAT|52=20230405-14:13:56.576|56=INCAEU_UAT|57=SMART|11=64db9ebe-28a4-467f-9efc-3bf93ce56d8f|15=GBP|21=1|22=4|38=100|40=1|48=GB00BH4HKS39|54=1|55=GB00BH4HKS39|60=20230405-14:13:56.576|207=XLON|10=003|8=FIX.4.2|9=77|35=0|34=63|49=INVINITIVE_UAT|52=20230405-14:14:26.706|56=INCAEU_UAT|57=SMART|10=140|8=FIX.4.2|9=77|35=0|34=64|49=INVINITIVE_UAT|52=20230405-14:14:57.705|56=INCAEU_UAT|57=SMART|10=144|8=FIX.4.2|9=85|35=0|34=65|49=INVINITIVE_UAT|52=20230405-14:14:57.828|56=INCAEU_UAT|57=SMART|112=127|10=002|8=FIX.4.2|9=77|35=0|34=66|49=INVINITIVE_UAT|52=20230405-14:15:27.828|56=INCAEU_UAT|57=SMART|10=150|8=FIX.4.2|9=217|35=D|34=67|49=INVINITIVE_UAT|52=20230405-14:15:36.591|56=INCAEU_UAT|57=SMART|11=4e322bd4-f0bc-49b4-b4a4-8ead60ca83ff|15=GBP|21=1|22=4|38=100|40=1|48=GB00BH4HKS39|54=1|55=GB00BH4HKS39|60=20230405-14:15:36.591|207=XLON|10=218|8=FIX.4.2|9=77|35=0|34=68|49=INVINITIVE_UAT|52=20230405-14:16:06.724|56=INCAEU_UAT|57=SMART|10=145|8=FIX.4.2|9=77|35=0|34=69|49=INVINITIVE_UAT|52=20230405-14:16:37.722|56=INCAEU_UAT|57=SMART|10=148|8=FIX.4.2|9=85|35=0|34=70|49=INVINITIVE_UAT|52=20230405-14:16:37.850|56=INCAEU_UAT|57=SMART|112=133|10=246|8=FIX.4.2|9=77|35=0|34=71|49=INVINITIVE_UAT|52=20230405-14:17:08.849|56=INCAEU_UAT|57=SMART|10=150|8=FIX.4.2|9=85|35=0|34=72|49=INVINITIVE_UAT|52=20230405-14:17:08.974|56=INCAEU_UAT|57=SMART|112=135|10=000|8=FIX.4.2|9=217|35=D|34=73|49=INVINITIVE_UAT|52=20230405-14:17:16.600|56=INCAEU_UAT|57=SMART|11=1fa5c694-1c4d-415e-8201-b6c153fa8376|15=GBP|21=1|22=4|38=100|40=1|48=GB00BH4HKS39|54=1|55=GB00BH4HKS39|60=20230405-14:17:16.600|207=XLON|10=171|8=FIX.4.2|9=77|35=0|34=74|49=INVINITIVE_UAT|52=20230405-14:17:46.735|56=INCAEU_UAT|57=SMART|10=149|8=FIX.4.2|9=77|35=0|34=75|49=INVINITIVE_UAT|52=20230405-14:18:17.734|56=INCAEU_UAT|57=SMART|10=148|8=FIX.4.2|9=85|35=0|34=76|49=INVINITIVE_UAT|52=20230405-14:18:17.860|56=INCAEU_UAT|57=SMART|112=140|10=251|8=FIX.4.2|9=77|35=0|34=77|49=INVINITIVE_UAT|52=20230405-14:18:47.861|56=INCAEU_UAT|57=SMART|10=154|8=FIX.4.2|9=217|35=D|34=78|49=INVINITIVE_UAT|52=20230405-14:18:56.597|56=INCAEU_UAT|57=SMART|11=b12a6311-e1a9-49e7-a82b-d08582d66289|15=GBP|21=1|22=4|38=100|40=1|48=GB00BH4HKS39|54=1|55=GB00BH4HKS39|60=20230405-14:18:56.597|207=XLON|10=177|8=FIX.4.2|9=77|35=0|34=79|49=INVINITIVE_UAT|52=20230405-14:19:26.732|56=INCAEU_UAT|57=SMART|10=151|8=FIX.4.2|9=77|35=0|34=80|49=INVINITIVE_UAT|52=20230405-14:19:57.730|56=INCAEU_UAT|57=SMART|10=145|8=FIX.4.2|9=85|35=0|34=81|49=INVINITIVE_UAT|52=20230405-14:19:57.857|56=INCAEU_UAT|57=SMART|112=146|10=008|8=FIX.4.2|9=77|35=0|34=82|49=INVINITIVE_UAT|52=20230405-14:20:27.857|56=INCAEU_UAT|57=SMART|10=146|8=FIX.4.2|9=217|35=D|34=83|49=INVINITIVE_UAT|52=20230405-14:20:36.600|56=INCAEU_UAT|57=SMART|11=90075d9b-2f48-416f-9ee4-d3fbcceea01f|15=GBP|21=1|22=4|38=100|40=1|48=GB00BH4HKS39|54=1|55=GB00BH4HKS39|60=20230405-14:20:36.600|207=XLON|10=159|8=FIX.4.2|9=77|35=0|34=84|49=INVINITIVE_UAT|52=20230405-14:21:06.737|56=INCAEU_UAT|57=SMART|10=143|8=FIX.4.2|9=77|35=0|34=85|49=INVINITIVE_UAT|52=20230405-14:21:37.735|56=INCAEU_UAT|57=SMART|10=146|8=FIX.4.2|9=77|35=0|34=86|49=INVINITIVE_UAT|52=20230405-14:22:07.735|56=INCAEU_UAT|57=SMART|10=145|8=FIX.4.2|9=217|35=D|34=87|49=INVINITIVE_UAT|52=20230405-14:22:16.612|56=INCAEU_UAT|57=SMART|11=a412db9c-5897-49b4-a3c0-3d240669c0b5|15=GBP|21=1|22=4|38=100|40=1|48=GB00BH4HKS39|54=1|55=GB00BH4HKS39|60=20230405-14:22:16.612|207=XLON|10=175|8=FIX.4.2|9=77|35=0|34=88|49=INVINITIVE_UAT|52=20230405-14:22:46.748|56=INCAEU_UAT|57=SMART|10=154|8=FIX.4.2|9=77|35=0|34=89|49=INVINITIVE_UAT|52=20230405-14:23:17.748|56=INCAEU_UAT|57=SMART|10=154|